:020000040800F2
:10000000600700208901000857140008AB1300089E
:10001000551400088F0200081516000800000000A3
:10002000000000000000000000000000851400082F
:10003000D90200080000000083140008871400089B
:10004000A3010008A3010008A3010008A301000800
:10005000A3010008A3010008A3010008A3010008F0
:10006000A3010008A3010008A3010008A3010008E0
:10007000A3010008A3010008A3010008A3010008D0
:10008000A3010008A3010008A3010008A3010008C0
:1000900009160008A3010008A3010008A301000835
:1000A000A3010008A3010008A3010008A3010008A0
:1000B000A3010008A3010008A3010008A301000890
:1000C000A3010008A3010008A3010008A301000880
:1000D000A3010008A3010008A3010008A301000870
:1000E000A3010008A3010008A301000800F002F822
:1000F00000F03AF80AA090E8000C82448344AAF188
:100100000107DA4501D100F02FF8AFF2090EBAE885
:100110000F0013F0010F18BFFB1A43F0010318473B
:10012000A81D0000C81D0000103A24BF78C878C17F
:10013000FAD8520724BF30C830C144BF04680C60ED
:10014000704700000023002400250026103A28BF35
:1001500078C1FBD8520728BF30C148BF0B60704739
:100160001FB51FBD10B510BD00F058F81146FFF7C0
:10017000F7FF01F0F3FA00F076F803B4FFF7F2FFAF
:1001800003BC00F07DF8000009488047094800479B
:10019000FEE7FEE7FEE7FEE7FEE7FEE7FEE7FEE737
:1001A000FEE7FEE704480549054A064B7047000094
:1001B000E9140008ED00000860010020600700203D
:1001C00060030020600300204FF0000200B51346DA
:1001D00094469646203922BFA0E80C50A0E80C5067
:1001E000B1F12001BFF4F7AF090728BFA0E80C5018
:1001F00048BF0CC05DF804EB890028BF40F8042B11
:1002000008BF704748BF20F8022B11F0804F18BF7D
:1002100000F8012B7047704770477047754600F033
:100220002BF8AE4605006946534620F00700854688
:1002300018B020B5FFF7B6FFBDE820404FF000062C
:100240004FF000074FF000084FF0000B21F00701BE
:10025000AC46ACE8C009ACE8C009ACE8C009ACE801
:10026000C0098D46704710B50446AFF300802046A4
:10027000BDE81040FFF781BF00487047FC00002038
:1002800001491820ABBEFEE7260002007047FEE7DA
:1002900038B50E4C4FF4007525600025A560E5606B
:1002A000082525610A4C050A25706070080AA070AF
:1002B000E170100A20716271180AA071E3716B4637
:1002C00022460249034800F01CF838BD48000020CF
:1002D0000100002090000020704772B6FEE790F801
:1002E0002020012A07D0022A05D0416A41F480214A
:1002F000416201207047006842690A434261002060
:100300007047F0B590F820500468A468012D05D01E
:10031000022D03D0416A41F4802153E014F0406F74
:1003200001D1E5004BD5C4F30164022C03D9416A25
:1003300041F4000146E00125A5401D608D684FF4A1
:10034000C0739DB1CE6835434E6845EAC605066860
:1003500003EB0417F5514FF4C275076805EB04155C
:100360000E697E51097D012905D009E00E88CD680E
:1003700045EA4655EBE701684E5946F480764E5102
:100380001179D2F805504FF4C67641EA0525016887
:1003900006EB04168D511178D2F801204FF4C47584
:1003A00041EA0221026805EB04155151006803EB94
:1003B0000411425842F0010242500020F0BD416A4F
:1003C00041F4001141620120F0BD000010B590F829
:1003D00020300268012B07D0022B05D0416A41F47E
:1003E00080214162012010BDD2F8000240F00100DE
:1003F000C2F80002087D00F01F0301209840D2F8E7
:100400001C328343C2F81C32CB69B3B9D2F80C3228
:100410008343C2F80C328C894B6864F31F434C69E8
:1004200002EBC404C4F840320C890B6864F31F4328
:100430004C6902EBC404C4F84432CB69012B16D1D9
:10044000D2F80C320343C2F80C320C884B6864F3C8
:100450001F434C6902EBC404C4F840320C89CB68DA
:1004600064F31F434C6902EBC404C4F844328B6943
:10047000002BD2F804320FD053EA0003C2F8043242
:100480000B69002BD2F8143208D00343C2F814329F
:10049000096A012904D008E08343EFE78343F5E7C5
:1004A000D2F81C120143C2F81C12D2F8000220F04C
:1004B0000100C2F80002002010BD704730B590F86E
:1004C0002040012C05D0022C03D0416A41F4802148
:1004D0005DE00468002955D02469A40754D04FF486
:1004E000D874056804EB01142D5915F004059560C6
:1004F00005682D594ED0ED08556005682C5904F05B
:100500000204D4604FF4DA74056804EB01142D5929
:1005100005F00F05156105682D59C5F3072595618F
:1005200005682C59240C54614FF4DC72046802EB0A
:100530000112A4581C700468A458240A5C70046852
:10054000A458240C9C700468A258120EDA704FF460
:10055000DE72046802EB0112A4581C710468A458EE
:10056000240A5C710468A458240C9C710468A25885
:10057000120EDA71006881B1016941F02001016158
:10058000002030BDE468A8E7416A41F400114162EF
:10059000012030BD6D0D1560AFE7C16841F020014D
:1005A000C160EDE72DE9F05F05460068002446696B
:1005B000D0F804908768D0F80CB0D0F810A0D0F82C
:1005C0001880F10748D0F90714D001218160B807DD
:1005D00003D5284600F009FA0CE0780702D54FF45D
:1005E000006407E0380702D54FF4805402E0284643
:1005F00000F0FAF9F80516D529684FF48070886084
:10060000B80503D5284600F0F2F90CE0780502D5CC
:1006100044F4005407E0380502D544F4804402E075
:10062000284600F0E3F9F80316D529684FF4803026
:100630008860B80303D5284600F0DBF90CE07803A6
:1006400002D544F4004407E0380302D544F4803472
:1006500002E0284600F0CCF9300707D55FEACB600E
:1006600004D52968102044F40074C86070074FF066
:10067000080707D55FEA0B7004D52868C7602846CD
:1006800000F05AF9B00706D52868C068800702D084
:10069000284600F053F9700607D55FEACA6004D512
:1006A0002968102044F480640861B00607D55FEA29
:1006B0000A7004D528680761284600F065F9F0063D
:1006C00006D528680069800702D0284600F05DF949
:1006D000B00308D55FEAC96005D5296810204860D5
:1006E000284600F053F9F00307D55FEA097004D5F6
:1006F00028684760284600F07DF9300446D55FEA57
:10070000497040D5F00504D55FEAC87001D044F0C7
:100710000104B00504D55FEA887001D544F00204F5
:10072000700504D55FEA487001D544F00404300533
:1007300029D518F0700F26D008F07000402815D089
:1007400006DC102809D020280AD0302816D10AE06B
:1007500050280ED0602811D10EE044F008040DE0BE
:1007600044F010040AE044F0200407E044F04004A0
:1007700004E044F0800401E044F480742868816956
:1007800021F070018161296804204860002C05D0A7
:10079000686A204368622846FFF78FFEBDE8F09F35
:1007A00070B5040003D094F8200010B104E00120DB
:1007B00070BD204600F082F82068016841F0010118
:1007C000016000F009FA0546052604E000F004FA8D
:1007D000401B0A2811D820684068C007F6D020685E
:1007E000016821F00201016000F0F6F905460BE016
:1007F00000F0F2F9401B0A2806D9606A40F4003084
:10080000606284F82060D2E7206840688007EFD4F7
:10081000207E0128206801683DD021F08001016020
:10082000607E01282068016838D021F04001016015
:10083000A07E01282068016833D021F020010160EA
:10084000E07E0128206801682ED041F0100101608F
:10085000207F01282068016829D021F0080101606B
:10086000607F01282068016824D021F00401016024
:10087000D4E902010843D4E9041211430843616832
:10088000491E08432168C86100206062012084F885
:100890002000002070BD41F08001C0E741F0400120
:1008A000C5E741F02001CAE721F01001CFE741F090
:1008B0000801D4E741F00401D9E7000010B586B083
:1008C000002100910191029103910068174988422B
:1008D0002AD11748C16941F00071C161C16901F0B5
:1008E00000710491816941F0040181618069114CBA
:1008F00000F0040004904FF4006000906946204628
:1009000000F07AF8A01400900220019003200390D8
:100910006946204600F070F800221146142000F0CD
:10092000BFF9142000F0AEF906B010BD006400401D
:1009300000100240000801407047000000B589B077
:1009400007AB6A460021FFF7B9FD0098A0F50070DB
:10095000013805D0012803D0022801D003280CD18A
:1009600000980749401EC0B20870064900EB80009D
:1009700001EB400007A900F0E3FE09B000BD000054
:1009800000000020200000207047704770470000E2
:1009900070B5044690F82000012804D0606A40F445
:1009A0000020606218E0022084F8200020680168BE
:1009B00021F00101016000F00FF905460EE000BFD3
:1009C00000F00AF9401B0A2808D9606A40F4003098
:1009D0006062052084F82000012070BD2068406816
:1009E000C007EDD1606270BD7047704770477047B7
:1009F00070477047704700002DE9F84FDFF8B89155
:100A0000002409F1040A0AF1040B23460F270BF115
:100A1000040EC9E00125A5402A40AA427DD1674EB7
:100A2000D1F804C0ACEB0608B44532D014DCBCF1FC
:100A3000030F3AD009DCBCF1000F2AD0BCF1010F42
:100A40001CD0BCF1020F31D11DE0BCF1110F17D049
:100A5000BCF1120F2AD119E0B8F5881F19D006DCB5
:100A6000B8F5803F15D0B8F5801F1FD111E0B8F55B
:100A7000001F0ED0B8F5041F18D10AE0CB6815E0AE
:100A8000CB681B1D12E0CB6808330FE0CB680C333A
:100A90000CE08B682BB1012B4FF0080303D04561AC
:100AA00004E0042302E0056100E00023FF2A01D8EE
:100AB000064601E000F104064FEA840501D9A5F1DC
:100AC0002005D6F8008007FA05FC28EA0C0803FA8E
:100AD00005F548EA0508C6F800804D68ED0062D5C6
:100AE000374DAE6946F00106AE61AD6924F00306EC
:100AF00005F001050095334D06EB050CDCF80850B8
:100B0000A607360F07FA06F825EA0805DFF8B880C9
:100B1000404503D14FF0000817E044E0DFF8AC8017
:100B2000404502D14FF001080FE0DFF8A4804045B6
:100B300002D14FF0020808E0DFF89880404502D16A
:100B40004FF0030801E04FF0040808FA06F848EAFD
:100B50000508CCF808804D68D9F80060ED034D46D3
:100B600001D5164300E096432E604D68DAF8006028
:100B7000AD03554601D5164300E096432E604D68FF
:100B8000DBF80060ED025D4601D5164300E09643B8
:100B90002E604D68DEF80060AD02754601D5164343
:100BA00000E096432E60641C0D682A46E5407FF401
:100BB00031AFBDE8F88F00000004014000001110C3
:100BC000001002400000014000080140000C0140FC
:100BD0000010014000140140014880687047000087
:100BE0000C0000200248816802781144816070473F
:100BF0000C000020074810B5016841F010010160A9
:100C0000032000F06DF80F2000F006F800F024F843
:100C1000002010BD0020024070B50D4D04464FF479
:100C20007A712878B1FBF0F00A490968B1FBF0F05D
:100C300000F0E4FA48B9102C07D200222146501ED9
:100C400000F02EF800206C6070BD012070BD000027
:100C50000C00002018000020094808B5816941F007
:100C600001018161816901F001010091C16941F0D7
:100C70008051C161C06900F08050009008BD000043
:100C800000100240002809DB00F01F020121914002
:100C90004009800000F1E020C0F80011704700001A
:100CA000F0B40E4B1B680C46C3F30223C3F10705D7
:100CB000042D00D90425191D072901D2002300E0C5
:100CC000DB1E012606FA05F1491E214099409E408F
:100CD000761E16403143F0BC00F09DBC0CED00E0E8
:100CE000064900F0070208684FF6FF03184040EA83
:100CF0000220034A10430860704700000CED00E03A
:100D00000000FA052DE9F0470F46050061D0434E7B
:100D1000306800F00700B84209D2306820F00700C0
:100D200038433060306800F00700B84251D128687D
:100D30003B4C810712D5400703D5606840F4E06062
:100D400060602878000703D5606840F460506060F8
:100D50006068A96820F0F000084360602878C00748
:100D600028D06868012810D02168022810D089078F
:100D700000292EDA616821F0030101436160FFF769
:100D80002BFF804641F288390DE021688903EFE7A7
:100D90008901EDE7FFF720FFA0EB0801494502D9E3
:100DA0000320BDE8F0876068696800F00C00B0EBD4
:100DB000810FEFD1306800F00700B8420BD93068DE
:100DC00020F0070038433060306800F00700B84278
:100DD00001D00120E5E72878400705D56068E9687B
:100DE00020F4E060084360602878000706D560685A
:100DF000296920F4605040EAC100606000F038F8D2
:100E00006168084AC1F30311515CC8400649086093
:100E100006480068FFF700FF0020C2E700200240FC
:100E200000100240B01E0008180000201000002032
:100E30000448054900684968044AC1F30221515C2D
:100E4000C84070471800002000100240C01E000873
:100E50000448054900684968044AC1F3C221515C4D
:100E6000C84070471800002000100240C01E000853
:100E700012A185B00FC98DE80F0014A0144A0068B4
:100E800004905168134801F00C03042B10D0082B78
:100E90000ED1C1F38343C9031DF803000AD551687D
:100EA00004AAC1F34041515C0A4A5043B0FBF1F03F
:100EB00005B0704708494843FAE7000002030405FB
:100EC000060708090A0B0C0D0E0F10100102000096
:100ED0000010024000127A0000093D002DE9F84F91
:100EE000040070D02078C04DC00749D06868C0F3B6
:100EF0008100012807D06868C0F38100022809D169
:100F00006868C00306D52868800339D56068002862
:100F1000E7D035E06068B0F5803F0BD010B1B0F598
:100F2000A02F11D0286820F480302860286820F491
:100F3000802002E0286840F480302860606890B12A
:100F4000FFF74AFE06460AE0286840F48020286041
:100F5000F0E700BFFFF740FE801B642873D82868C5
:100F60008003F7D50CE0FFF737FE064605E000BF2B
:100F7000FFF732FE801B6428F0D828688003F7D47E
:100F800020789A4E80074FF001094FF0000839D5BC
:100F9000686810F00C0F07D06868C0F38100022861
:100FA00009D16868C00306D42868800714D5206971
:100FB000012808D110E02069B0B1C6F80090FFF711
:100FC0000BFE074605E00AE1FFF706FEC01B0228FC
:100FD000C4D828688007F7D52868616920F0F80030
:100FE00040EAC10028600DE0C6F80080FFF7F4FD7C
:100FF000074604E0FFF7F0FDC01B022823D828684D
:101000008007F7D4207800072CD57948A169D9B199
:10101000C0F80090FFF7E0FD074604E0FFF7DCFDB5
:10102000C01B02280FD8686A8007F7D571484FF4B3
:10103000FA510068B0FBF1F0009000BF0098411E2B
:101040000091FAD20EE080E0C0F80080FFF7C4FD06
:10105000074604E0FFF7C0FDC01B022875D8686A88
:101060008007F7D42078400760D5E8690027C000E2
:1010700008D4E86940F08050E861E869012700F091
:10108000805000905C480168C90513D4016883460C
:1010900041F480710160FFF79FFD824606E000BFCA
:1010A000FFF79AFDA0EB0A0064284ED8DBF8000099
:1010B000C005F5D5E06801280AD008B1052813D08D
:1010C000286A20F001002862286A20F0040002E06B
:1010D000286A40F001002862E06841F2883B98B13C
:1010E000FFF77AFD82460BE0286A40F00400286290
:1010F000EEE700BFFFF770FDA0EB0A0159455AD893
:10110000286A8007F6D50CE0FFF766FD824605E009
:10111000FFF762FDA0EB0A0159454CD8286A800709
:10112000F6D41FB1E86920F08050E861E06988B327
:101130006968C1F38101022944D00228C6F86080A1
:1011400004D0FFF749FD044638E034E0FFF744FDE2
:10115000074604E0FFF740FDC01B02282BD8286893
:101160008001F7D4206AB0F5803F05D16868A16896
:1011700020F4003008436860D4E908010843696836
:1011800021F4741108436860C6F86090FFF724FDED
:10119000044606E025E000BFFFF71EFD001B022805
:1011A00009D828688001F7D51BE000BFFFF714FDC0
:1011B000001B022802D90320BDE8F88F28688001AF
:1011C000F4D40EE00128F7D06868226A00F4803178
:1011D000914204D1616A00F47010884201D001206C
:1011E000EAE70020E8E70000001002400000424269
:1011F00080044242180000200070004010B5401EDC
:10120000B0F1807F01D3012010BD4FF0E024606178
:101210000F21601700F0FFF90020A0610720206176
:10122000002010BD70B5040004D094F83D000025E6
:1012300010B106E0012070BD84F83C50204600F05B
:1012400023F8242084F83D002068C16821F400516F
:10125000C160204600F04AF92068016921F49041FC
:1012600001612068416921F02A0141612068C1685B
:1012700041F40051C1602564202084F83D0084F8C9
:101280003E00002070BD000030B585B00024009401
:1012900001940294039400681449884224D11448AC
:1012A000816941F480418161816901F48041049147
:1012B000816941F00401816180690E4D00F00400F4
:1012C00004904FF4007000900220019003200390DE
:1012D00069462846FFF790FB2815CDE900046946CA
:1012E00028460294FFF788FB05B030BD0038014066
:1012F00000100240000801402DE9F843044690F830
:101300003D001F4616460D4620284CD1C5B1BEB142
:1013100094F83C00012846D0012084F83C004FF0AE
:101320000008C4F84080212084F83D00FFF754FCF9
:10133000A6848146E684A068B0F5805F03D004E00F
:101340000120BDE8F883206928B12E465FF0000532
:1013500084F83C800EE00026FAE78021204600F069
:1013600021F9A0B9AEB116F8010B21684860E08CF4
:10137000401EE084E08C4B464FF0000200970028AE
:10138000EBD14FF04001204600F00CF930B10320C2
:10139000D7E735F8020BC0F30800E6E7202084F811
:1013A0003D000020CDE70220CBE7FEE70F4810B557
:1013B0000D4901600421416000214FF480228160C9
:1013C000C0E90312D2004261017641768176C1768E
:1013D00001774177FFF7E4F9002803D0BDE810401A
:1013E000FEF77BBF10BD00000064004090000020AD
:1013F000094808B5816941F020018161816901F0E6
:1014000020010091816941F004018161806900F04F
:101410000400009008BD0000001002400C4810B508
:101420000A4901604FF4E1314160002181600C22E2
:10143000C160C0E904128161C161FFF7F3FE0028B9
:1014400003D0BDE81040FEF748BF10BD0038014092
:10145000B8000020FEE7FEE710B500225FF00A03A7
:10146000B0FBF3F403FB14048C54B0FBF3F403FB64
:101470001404001BC0B2B0FBF3F0521C072AEFDDCE
:1014800010BD70477047FFF7ADBB30B58FB0282156
:101490006846FEF799FE14210AA8FEF795FE012181
:1014A0000804CDE900100024029402250491CDE93E
:1014B00007504FF4E01009906846FFF70FFD08B1A0
:1014C00072B6FEE70F20CDE90A054FF48060CDE942
:1014D0000C4002210AA80E94FFF714FC002801D04A
:1014E00072B6FEE70FB030BD7047000070B504461D
:1014F00000680169E26821F44051114301612169EA
:10150000A0680843616908432168CA6841F20C6316
:101510009A430243CA6020684169A26921F440717C
:10152000114341611E492068884202D1FFF790FCB7
:1015300001E0FFF77DFC00EBC00101EB00126068E9
:1015400064218000B2FBF0F3B3FBF1F36FF01806F7
:101550007343B2FBF0F5B2FBF0F605EB83053223E3
:1015600003EB0515B5FBF1F5B6FBF1F605F0F0055B
:1015700005EB0615B2FBF0F6B2FBF0F0B0FBF1F0B4
:101580006FF01802504306EB800003EB0010B0FB35
:10159000F1F0216800F00F002844886070BD000061
:1015A000003801402DE9F041984617460E460446A2
:1015B000069D1DE0681C1BD02DB1FFF70DFBA0EBB5
:1015C0000800A84214D92068C16821F4D071C16014
:1015D0002068416921F001014161202084F83D002B
:1015E00084F83E00002084F83C000320BDE8F08130
:1015F0002068006836EA000004D00020B842D9D044
:101600000020F3E70120F9E70148FEF7CBBF000017
:1016100090000020FEE70907090E002804DB00F116
:10162000E02080F80014704700F00F0000F1E02087
:1016300080F8141D7047000000B58BB00020012118
:10164000CDE9060108910090019002900390059069
:10165000049069460548FEF7B9FE0448FFF798F97B
:1016600002210248FEF73BFE0BB000BD90000020B7
:101670002DE9FF5F10ACDDF838A094E80F002D4C89
:10168000A346C4E90201C4E9002300F027FB054694
:10169000C4E90401D4E9060C0E462A4633466146E5
:1016A00000F0B2F8C4E906010746D4E90A0C8946FD
:1016B0002A463346614600F011FBC4E908010246A0
:1016C0000B4650460F9900F0D5F980468A46DDE971
:1016D00002013A464B4600F0CDF904460F46DDE9DB
:1016E00000012A46334600F0C5F922463B4600F089
:1016F0008BF84246534600F087F804460D46002218
:101700000D4B00F0B5FA01D20B4D002400220B4B1B
:101710002046294600F072F901D2084D00245846AF
:10172000D0E90412CBE90A1204B020462946BDE8EC
:10173000F09F0000600000200000D0400000D0C0FA
:10174000028802810A8852BA02804A8852BA4280CC
:101750008A8852BA828089798171704788B0FFF790
:1017600049FAFFF792FEFFF743FEFFF71FFEFFF770
:1017700055FE1D48FFF70CF9FFF75EFF1B4C1C4F91
:10178000DFF87080DFF87090002640F6B8354FF42F
:10179000804A4FF6FF7B00BFB4F9020000F017F952
:1017A000CDE9040115490020CDE9020114493A466A
:1017B000CDE9000143464946FFF75AFF00F0D8F84B
:1017C00000B22A462B465146FEF762FD0696079662
:1017D000A07906A9FFF740FE5B46082206A9094842
:1017E000FFF78AFDD8E700009000002020000020CD
:1017F0007B14AE47E17A843F0000F03F007CB540A7
:1018000000002440B800002010B591EA030F48BF43
:1018100083F0004300F16A82841A71EB030C05D255
:10182000121943EB0C03001B61EB0C01DFF824E100
:101830004FEA1154A4EB135C1EEA430F18BF9EEA53
:10184000445F73D023EA0E03DCF1200E21EA045139
:1018500043F4801332D322FA0CFE10EB0E0023FA6D
:101860000CFE41EB0E01CCF1200E03FA0EFE10EB44
:101870000E0051F10001B1F5801FCCF1200E32D2E3
:1018800001EB045112FA0EF2BDE8104058BF704748
:10189000401C38BF5FEA420218BF7047002814BFDF
:1018A00020F0010041F100014FEA410313F5001F50
:1018B00038BF7047A1F1C04100F0D4B9012A43EB11
:1018C0000302ACF1200CDCF11F0E32BF4FF0000E12
:1018D00023FA0CF310EB030041EB0451B4EB115F5E
:1018E000D0D0A1EB045101F5801149085FEA300026
:1018F00001EB04510ED350F1000038BF12FA0EFE76
:1019000008D1BDE81040C9E7401C38BF5FEA420279
:10191000CAD1C3E7BDE810404FEA410313F5001FE9
:1019200038BF7047A1F1C04100F09CB99EEA445F06
:1019300008D011EA5E0FBDE8104004BF01F000417D
:1019400000207047BDE8104070B500F03DF900BFC1
:1019500064FBBE3E0000E0FF491058BFC1F14041AA
:101960005B1058BFC3F140438B42EFF300807047D8
:101970004FEA41034FEA5353A3F58063D3F11E03AB
:10198000C8BFD3F1210C0CDD4FF0004242EAC12266
:1019900042EA505232FA03FC8CEAE17CACEBE17093
:1019A0007047102BC4BF0020704703F5787CBCF152
:1019B000FF3F04D06FF0004282EA2100704770B50B
:1019C00000F002F94992248000207047F2E710F0FD
:1019D000004248BF4042B0FA80F310FA03F10AD047
:1019E000C3F11D0303F580634FEA415002EB03523C
:1019F00002EBD12170474FF00000704751EA030C11
:101A000017D41CF5801F58BFBCF5801F00F106805D
:101A1000994218BF704708BF9042704707D711F529
:101A2000801F58BF13F5801F19D49942704789420F
:101A300070471CF5801F08D5BCF5801FF7D58B4279
:101A400018BF704708BF824270474FF4001C1CEB60
:101A5000410F38BF1CEB430F01D28B42704770B56A
:101A600000F0B2F8922449004FF000514FF080533B
:101A7000FFF772BFDFF848C170B51CEA111E1EBF28
:101A80001CEA13159EEA0C0F95EA0C0F00F06F800C
:101A900081EA030423EA4C134EEAD47E21EA4C1176
:101AA00041F4801143F48013AE44A1FB024CA0FB2F
:101AB0000365AEF17F7E361955EB0C05A1FB034C97
:101AC0004CF10003A0FB021C16EB0C06654153F120
:101AD0000003094218BF46F0010613F4007F0BD142
:101AE0004FEA03314FEA0530340341EA155140EA29
:101AF00016506FF003020AE04FEAC3214FEAC520F7
:101B0000F40241EA555140EA56506FF0020202EBEE
:101B10002E4201EB025585EACE710AD05FEA440CF1
:101B200018BF24F0004450F1000041F1000120EA08
:101B3000D47040F2FE7C624500D270BDA84214BF52
:101B40004FF080444FF04044002E08BF0024BEF107
:101B5000806FA8BFA1F1C041BDE8704080F28280D3
:101B60004FF0000001F1C04101F0004170479EEAD2
:101B70000C0F0CEA131518BF95EA0C0F06D04FF0A6
:101B8000000081EA030E0EF0004170BD00F01CF869
:101B90008900013E00F007B800F009B84FEA430C95
:101BA0005FEA5C5C08D081EA030100F05BB84FEAB1
:101BB000410C5FEA5C5CF6D14FF0000001497047D0
:101BC0000000FF070000F87F0EF1020E2EF0030E5A
:101BD0005EF8046B364205D4012A43EB030515F584
:101BE000001F12D8012841EB010C1CF5001F0CD876
:101BF0000ED14FEAD17C15F5001F0CEB4C0C0CF10B
:101C0000020C08BF4CEBD37C04E04FF0080C01E061
:101C10004FEAD37C0CEB4C0526FA05F606F00706D6
:101C2000B6F1040C06D20EEB860CBDE870404CF009
:101C3000010C6047DFE80CF0090B02024FF0004195
:101C40004FF00000A1F5002170BD19461046012893
:101C500051EB010418BFD4F5001484BF002001F03B
:101C6000004170BD0808A0F500114FEA310170472E
:101C700053EA010C17D41CF5801F58BFBCF5801F18
:101C800000F106808B4218BF704708BF8242704740
:101C900007D713F5801F58BF11F5801F19D48B4249
:101CA00070479B4270471CF5801F08D5BCF5801F0C
:101CB000F7D5994218BF704708BF904270474FF45C
:101CC000001C1CEB430F38BF1CEB410F01D29942A3
:101CD00070470FB40CBC03BCFFF7C1BE10B591EA4E
:101CE000030F48BF83F000433FF596AD841A71EBB4
:101CF000030C07D212198CF0004C43EB0C03001BB1
:101D000061EB0C01DFF8A4E14FEA1154A4EB135C82
:101D10001EEA430F18BF9EEA445F00F0B08023EA3A
:101D20006E03524221EA0451C3EB6E0338BF5B1EBF
:101D3000DCF1200E25D322FA0CFE10EB0E0043FA44
:101D40000CFE41EB0E01CCF1200E03FA0EFE10EB5F
:101D50000E0051F10001CCF1200E29D412FA0EF23E
:101D600001EB0451BDE8104058BF7047401C1CBF38
:101D7000B2F1004F704700280CBF491C20F0010051
:101D8000704712EB020E43EB030218BF4FF0010E37
:101D90004EEA4202ACF1200CDCF11E0E54D943FA9B
:101DA0000CFE10EB0E0051F1FF31CCF11E0ED5D51B
:101DB0000EF1010E12FA0EFE404141EB010101EB62
:101DC000445C5FEA5C5C10D910EBDE7001EB0451FF
:101DD00038BFBEF1004FBDE8104018BF7047002863
:101DE0000CBF491C20F00100704730D24FEAD42CC0
:101DF00011F5001124F400641BD0B1FA81F20B3A02
:101E0000A41AA41ED2F12003914030FA03F319431F
:101E1000904001EBCC71002C01EB0451BDE8104067
:101E2000A8BF704701F1C0414FF0000001F0004130
:101E30007047B0FA80F310FA03F100D110BDE41A34
:101E4000173C4805C90AE4E701EB045110BD4910ED
:101E500001EB0451BDE810404FEA300002E04FF0C2
:101E6000000170474A0008BF0042F8D0B2F5001FD9
:101E700028BF704701F000414FF0000070479EEA14
:101E8000445F07D011EA5E0FBDE8104004BF002197
:101E900000207047BDE8104070B5FFF795FE00BF09
:101EA00040DFF63E83F00041104670470000E0FF3F
:101EB00000000000000000000102030406070809FA
:101EC0000000000001020304E81E000800000020DA
:101ED0001C00000028010008041F00081C0000204E
:101EE000440700004401000800000000000000005A
:101EF00000000000010000001000000000000000D1
:041F00000024F400C5
:04000005080000ED02
:00000001FF
